:020000040800F2
:100000000000012079120208C9120208C912020870
:10001000C9120208C9120208C91202080000000031
:10002000000000000000000000000000C9120208EB
:10003000C912020800000000C91202080D3D0008A4
:10004000C9120208C9120208C9120208C91202081C
:10005000C9120208C9120208593D00085D3D000896
:10006000613D0008653D0008693D0008C9120208AD
:10007000C9120208C9120208C9120208C9120208EC
:10008000C9120208C9120208C9120208C9120208DC
:1000900000000000C91202086D3D0008C9120208E4
:1000A000DF3B0008C9120208F13B0008F53B0008DD
:1000B000093C00081D3C0008551101085B110108AE
:1000C0006111010867110108C9120208C91202086A
:1000D000354700084D47000869470008C912020863
:1000E000C9120208833D0008C9120208C912020899
:1000F000C91202080000000000000000C912020836
:100100006D11010873110108C1850108C9120208A7
:10011000C9120208C9120208C9120208C91202084B
:10012000C9120208C9120208C9120208C91202083B
:08013000C9120208C9120208FD
:1001400003689A69910744BF00229A629A69D207AC
:100150005EBF9A6942F001029A61704730B5039D13
:1001600004682B4343EA0243064A6068C1F309016D
:100170000B4342EA555223F0004320EA02000343B6
:10018000636030BDFF63FF034FF0B042536823F458
:100190007F4343EA0023536070474FF0B0432D4A3A
:1001A000D3F8083103F00F0302EB8301C0F303100F
:1001B000096C52F82030B3FBF1F32749096801F4C8
:1001C000C061B1F5007F10B510D024498B4231D306
:1001D00001F5B70101F67F518B4231D901F5741158
:1001E00001F510618B422DD9002310E01C498B4290
:1001F0001CD91C498B421BD901F5370101F5D85197
:100200008B42F1D8022302EB8303D3F880301649E6
:1002100016480A6822F007021A430A6004680A684E
:1002200002F0070293420FD1002010BD0023EAE73D
:100230000123E8E7002302EB8302D2F88030E6E7EF
:100240000123F8E70223F6E70268121B022AE6D927
:100250000320EAE7185A020800040058C0CF6A00D9
:10026000BFEA21013F93340200400058E804002017
:10027000836A1A0710B506D50168846B4A6822F4B0
:10028000004222434A60DC0706D50168C46A4A6816
:1002900022F4003222434A60990706D50168046BB4
:1002A0004A6822F4803222434A605A0706D5016820
:1002B000446B4A6822F4802222434A60DC0606D559
:1002C0000168C46B8A6822F4805222438A609906CE
:1002D00006D50168046C8A6822F4005222438A60C1
:1002E0005A060FD50168446C4A6822F480122243F2
:1002F000B4F5801F4A6005D14A68846C22F4C002BC
:1003000022434A601B0606D50268C16C536823F479
:1003100000230B43536010BDD0F88830212B10B55B
:100320001CD1B0F86A30CBB1B0F85620016892B257
:10033000AAB9026802F1080353E8003F23F400035E
:10034000083242E8003102680029F2D152E8003F49
:1003500043F0400342E800310029F7D110BDCA69DB
:1003600012060AD5026D12F8014B8C620265B0F8D4
:100370005620013A92B2A0F85620013B9BB2D2E738
:10038000D0F88830212B10B51CD1B0F86A30CBB131
:10039000B0F85620046892B2AAB9026802F10803C4
:1003A00053E8003F23F40003083242E800310268BA
:1003B0000029F2D152E8003F43F0400342E8003107
:1003C0000029F7D110BDE26912060CD5026D32F892
:1003D000021BC1F30801A1620265B0F85620013A80
:1003E00092B2A0F85620013B9BB2D0E7026852E8D7
:1003F000003F23F0800342E8003102680029F5D174
:1004000052E8003F43F0400342E800310029F7D1B1
:100410007047D0F88820212A034610D1B0F8562022
:1004200092B202B9E2E7026D016812F8010B88622C
:100430001A65B3F85620013A92B2A3F856207047D5
:10044000D0F88820212A034612D1B0F8562092B263
:1004500002B9CBE71A6D006832F8021BC1F308013C
:1004600081621A65B3F85620013A92B2A3F8562079
:1004700070474FF0B04382B0DA6C0243DA64DB6C51
:1004800003400193019B02B0704703681847012A9B
:1004900002D1016000207047022A05D0032AF9D05A
:1004A000002AF7D10260F5E70B680360F2E74FF02E
:1004B000B042D2F8883023F440630343C2F8883056
:1004C0007047D0F8943004381847D0F88C20B0F832
:1004D00060100368222A4FD15B6A826D0B40137053
:1004E000836D01338365B0F85E30013B9BB2A0F8A9
:1004F0005E30B0F85E309BB2002B41D1026852E80A
:10050000003F23F4907342E8003103680029F5D1DD
:1005100003F1080252E8002F22F0010203F1080C57
:100520004CE800210029F3D12022C0F88C20154A84
:1005300041679342016703D1C26E012A0CD0C0E724
:100540005A681102F8D553E8002F22F0806243E880
:1005500000210029F7D1EFE70022C26653E8002FFF
:1005600022F0100243E800210029F7D1DA69D2060F
:1005700006D510221A6270479A6942F008029A6101
:10058000704700BF00800040D0F88C10B0F86020A9
:10059000036822294ED15B6A1A40836D23F8022B2F
:1005A0008365B0F85E30013B9BB2A0F85E30B0F8D6
:1005B0005E309BB2002B41D1026852E8003F23F429
:1005C000907342E8003103680029F5D103F1080275
:1005D00052E8002F22F0010203F1080C4CE8002140
:1005E0000029F3D12022C0F88C20154A416793429C
:1005F000016703D1C26E012A0CD062E75A6811026A
:10060000F8D553E8002F22F0806243E8002100294A
:10061000F7D1EFE70022C26653E8002F22F0100264
:1006200043E800210029F7D1DA69D20606D5102265
:100630001A6270479A6942F008029A61704700BFD7
:100640000080004070470020704703460020187566
:1006500083F858007047826930B404695510034626
:1006600004EB6200D20748BF62595B6930BC48BFE7
:10067000D3581847826930B404695510034604EB17
:100680006200D20748BF62595B6930BC48BFD3588B
:100690001847024B1A685A60704700BFE8040020F0
:1006A0007047704770477047704770477047704792
:1006B000704770477047704703685B6818470020B1
:1006C0007047704708B5094B93F800225AB193F868
:1006D000AF2293F8AC3103B11AB1806803681B688C
:1006E0009847012008BD5A7BF3E700BFE8040020CB
:1006F0000A2938B50D4600F52A6403D10D2120469C
:10070000FFF7E0FF29462046BDE83840DAE7A0F5CC
:100710002A60EDE7A0F52B601DF03CBA054BD0F840
:1007200080261B6804489B1A83428CBF002001204E
:10073000704700BFE80400209FBB0D00D0F83C319B
:100740002DE9F047044606220133C0F83C310A2166
:10075000B3FBF1F1B1FBF2F002FB101194F8382178
:10076000CEB2D2B10025F022002104F1480023F0DE
:10077000D6F9C4E90C55C4E90E55C4E910556022F8
:10078000294604F5A27023F0CAF984F8385184F898
:1007900039614FF47A70BDE8F08794F8A4214FF4E2
:1007A0006165B3FBF5F505F00705AA4225D0214F99
:1007B00004F5B070072207F53A7A07F5427950F848
:1007C000048DC0F80480D0F820E0D0F840C0C0F814
:1007D00024E0C0F844C04AF8228049F822E0013AF7
:1007E000EDD1C4F84421C4F86421C4F88421C7F8C9
:1007F000E822C7F8082384F8A45194F83921B242BA
:100800001FBF0C31002284F8396144F821203C22BA
:10081000B3FBF2F3B3FBF2F102FB113394F83A119C
:10082000DAB291421FBF123384F83A21002244F811
:100830002320AEE7E804002008B503685B6898470A
:100840000028CCBF0020012008BD08B503680022A5
:1008500002751B686FF0004198476FF0004008BDBB
:10086000826930B404695510034604EB6200D20774
:1008700048BF62595B6930BC48BFD358184782698A
:1008800030B404695510034604EB6200D20748BF38
:1008900062595B6930BC48BFD3581847826930B48D
:1008A00004695510034604EB6200D20748BF625941
:1008B0005B6930BC48BFD3581847406A036810B41E
:1008C0000C465B691146224610BC184730B50B46F2
:1008D00000F1380201F1200518685968144603C474
:1008E0000833AB422246F7D11B78237030BD10B4D9
:1008F0000468246BA44610BC6047002070470020A9
:100900007047826930B404695510034604EB6200F5
:10091000D20748BF62595B6930BC48BFD3581847FB
:100920000020704770470020704700207047808A81
:100930008A89131A5842584170470120704703466C
:10094000002200691A6170470068096803689B68A3
:100950001847012A02D1016000207047022A05D001
:10096000032AF9D0002AF7D10260F5E70B6803608B
:10097000F2E70068096803689B681847E9E70068C0
:10098000096803689B681847E3E761B100F1180341
:10099000C91AB1F5B46F06D8034B491103FB010026
:1009A000002380F898377047EFEEEEEE00F2977272
:1009B000002312F8011F49B9C218012182F89817C3
:1009C0004FF4F07202FB0300183070470133042B20
:1009D000EFD10020704749B100F11403C91A18295A
:1009E0009EBF00EBE100002380F83430704700F137
:1009F0003302002312F8011F39B9C218012100EB9C
:100A0000C30082F83410143070470133042BF1D145
:100A10000020704771B100F11403C91A41F66A53FE
:100A2000994207D8044B491003FB010041F6747347
:100A30000022C254704700BF330A029A10B500F575
:100A4000FB521332002312F8011F51B9C11841F6AD
:100A5000747201248C544FF4FB7202FB03001430B7
:100A600010BD0133102BEED10020F9E7F0B506469A
:100A7000006850F82100B8B10468A569AB4207D1FD
:100A800017686568AF4203D15768A568AF420BD0BD
:100A9000256865B177682046AC69B4FBF7FC07FBB5
:100AA0001C44A14201D00020F0BD2C46E5E72846B9
:100AB000FAE770B5BC26B0B00C4605463246014692
:100AC00001A823F0D7F832462146284623F0D2F871
:100AD000324601A9204623F0CDF830B070BD30B4C5
:100AE000084D95F8AC4154B195F8AF423CB10124A2
:100AF00080F8DD4A80F8984830BC0AF03DB8002004
:100B000030BC7047E804002006F017B8002370B529
:100B1000C0F890300668144B1D6833681A07044605
:100B200016D433685B0708D56FF07E432A464FF42E
:100B30008001204619F000FC98B900202023C4F859
:100B4000883084F88400C4F88C30E066206709E0BF
:100B50006FF07E432A464FF4001119F0EDFB002898
:100B6000DFD0032070BD00BFE804002030B591FA4B
:100B7000A1F391FAA1F1B3FA83F3C4685B000325F2
:100B8000B1FA81F105FA03F3490024EA03038A402C
:100B90001A43C26030BD10B504461046D4E90023A4
:100BA0009B1A0C4A0C4CDB105343E21A8A4201D2C6
:100BB00020F06FFE994205D91944A14228BF214671
:100BC000084610BDB3EB430F4FEA4301F5D9204669
:100BD000F7E700BF35C2724FCB3D8D0070B591F87D
:100BE000502090F8503091F859404D6D02F1FF3C83
:100BF000DCF1000646EB0C069E4225D1631E5E42E8
:100C00005E4190F859309E421ED1436D5B1B18BF68
:100C10000123012680F85020B24280F8206045650B
:100C200008BF91F8582080F8594018BF652280F815
:100C3000582091F85A2080F85A201BB101462830DC
:100C40001BF0B0F8002070BD0123E2E770B5B1F8E9
:100C50005040B0F85060B0F85230B1F85220A0F8CF
:100C600054300125A64280F820500AD1934208D181
:100C7000A0F8523091F85630A0F850602BB90020FF
:100C800070BDA0F85040A0F85220014628301BF05B
:100C900089F8F4E70B6D026D534033F07F4370B574
:100CA000044648D18A6D836D9A4244D10A6E036E20
:100CB0009A4240D18A6E836E9A423CD1D1F880200C
:100CC000D0F880309A4236D1D1F88C20D0F88C30D0
:100CD0009A4230D1D1F8A820D0F8A8309A422AD12F
:100CE000D1F8A020D0F8A0309A4224D1D1F8B45045
:100CF000D0F8B430ED1A18BF0125012391F85060E7
:100D000084F8203091F8513084F8506084F85130E4
:100D10007422543104F1540022F0ACFF4DB11EB1E5
:100D2000064B1B68C4F8C830214604F128001BF0AC
:100D300039F8002070BD0125DFE700BFE80400207E
:100D40000D2018F0D9BF70B50546084B0360044666
:100D500055F8300FA84204D120461AF0BFFF2046B4
:100D600070BD066823F02CFF3046F3E7AC5A02084A
:100D700010B50446FFF7E7FF204623F021FF204689
:100D800010BD10B504461AF0A9FF204610BD10B5DD
:100D90000446FFF7F6FF204623F012FF204610BD61
:100DA00010B504461AF09AFF204610BD10B504464F
:100DB000FFF7F6FF204623F003FF204610BD2DE984
:100DC000FF4705461E4B55F8046F036004460DF1BE
:100DD00004084FF00009AE4206D16068854229D16F
:100DE000204604B0BDE8F087CDE90188B768CDF8AA
:100DF0000C90396801988F4203D1404515D136686F
:100E0000E9E78B68D1F800A09C420CD181420AD05E
:100E1000824508D0524620F058FA039B01330393D1
:100E2000BB68013BBB605146E4E7076823F0C8FE9E
:100E30003846E2E7066823F0C3FE3046CEE700BF3F
:100E4000B872020810B50446FFF7B9FF204623F038
:100E5000B7FE204610BD2DE9FF4705461E4B55F84D
:100E6000046F036004460DF104084FF00009AE4220
:100E700006D16068854229D1204604B0BDE8F087DC
:100E8000CDE90188B768CDF80C90396801988F4298
:100E900003D1404515D13668E9E78B68D1F800A049
:100EA0009C420CD181420AD0824508D0524620F0A3
:100EB0000CFA039B01330393BB68013BBB605146B3
:100EC000E4E7076823F07CFE3846E2E7066823F093
:100ED00077FE3046CEE700BFB872020810B5044670
:100EE000FFF7B9FF204623F06BFE204610BD2DE929
:100EF000FF4705461E4B55F8046F036004460DF18D
:100F000004084FF00009AE4206D16068854229D13D
:100F1000204604B0BDE8F087CDE90188B768CDF878
:100F20000C90396801988F4203D1404515D136683D
:100F3000E9E78B68D1F800A09C420CD181420AD02D
:100F4000824508D0524620F0C0F9039B0133039339
:100F5000BB68013BBB605146E4E7076823F030FE05
:100F60003846E2E7066823F02BFE3046CEE700BFA6
:100F7000B872020810B50446FFF7B9FF204623F007
:100F80001FFE204610BD2DE9FF4705461E4B55F8B4
:100F9000046F036004460DF104084FF00009AE42EF
:100FA00006D16068854229D1204604B0BDE8F087AB
:100FB000CDE90188B768CDF80C90396801988F4267
:100FC00003D1404515D13668E9E78B68D1F800A018
:100FD0009C420CD181420AD0824508D0524620F072
:100FE00074F9039B01330393BB68013BBB6051461B
:100FF000E4E7076823F0E4FD3846E2E7066823F0FB
:10100000DFFD3046CEE700BFB872020810B50446D7
:10101000FFF7B9FF204623F0D3FD204610BD10B5E1
:10102000034B036004461AF07BFE204610BD00BF50
:10103000D85A020870B50546084B0360044655F8B7
:10104000280FA84204D1201DFFF7E9FF204670BDFC
:10105000066823F0B5FD3046F3E700BFEC5A0208FE
:1010600010B50446FFF7E6FF204623F0A9FD204611
:1010700010BD10B5054B044640F8343BFFF79FFE0A
:101080002046FFF7D7FF204610BD00BFFC5A0208DC
:10109000F0B599B001AD044628461AF093FE214BF5
:1010A000019310330FAA0E931F4B1295CDE90F2217
:1010B0000022CDE9133211924FF0FF320223169233
:1010C00040F2FF228DF85430ADF85C208DF85E3090
:1010D000164AE36D116803F54343503327468B42AC
:1010E00038BF136857F8306F38BFE365BE4205D08C
:1010F000B068036829469B68984740B12846FFF7C7
:10110000B8FF636D2BB94FF0FF3019B0F0BD3668F2
:10111000ECE793F82030002B44F6206008BF4FF036
:10112000FF30F2E7FC5A0208DD0B0008E80400205B
:1011300010B50446FFF79DFF204623F041FD2046F1
:1011400010BD10B5054B044640F8343BFFF7CFFE09
:101150002046FFF76FFF204610BD00BF205B02084E
:1011600010B50446FFF7EDFF204623F029FD204689
:1011700010BD10B5054B044640F8343BFFF703FFA4
:101180002046FFF757FF204610BD00BF305B020826
:1011900010B50446FFF7EDFF204623F011FD204671
:1011A00010BD10B50446FFF73AFF204623F008FDB6
:1011B000204610BD2DE9F347324F019304460E46F9
:1011C00007F54A70A02122F043FC9F2884BF0A2320
:1011D00087F8C6332C4F05464FF0000888BF9F257F
:1011E0004FF0230A45450AD1C6B92A46264920466A
:1011F000FFF762FA0546284602B0BDE8F08797F887
:101200000090484624F034FB20B9B9F10A0F18BF0A
:1012100087F800A008F101080137E3E71B493046D1
:101220001CF004F920B91A4905222046FFF744FAB8
:10123000184930461CF0FAF820B917490522204613
:10124000FFF73AFA154930461CF0F0F820B9144976
:1012500005222046FFF730FA124930461CF0E6F826
:1012600020B9114905222046FFF726FA2A460649E9
:101270002046FFF721FA0D49054604222046FFF7D4
:101280001BFAB8E7E804002010080020089F0208B5
:101290000E9F0208149F02081A9F0208209F02084E
:1012A000269F02082C9F0208329F0208389F0208DE
:1012B0000346C06A0A4640B193F83501424083F8BC
:1012C000352103F114000CF00AB970470346C06AD7
:1012D00070B480B108465518854204D170BC03F142
:1012E00014000FF0B3BA10F8014B93F83561744055
:1012F00083F83541F0E770BC7047A0F52A601CF018
:101300004DBC2DE9F0411E4690F958308AB0002BB3
:10131000DDF8408004460D46174621DD00F1280324
:1013200010220021184622F0FAFBB8F5807FA76250
:10133000E662256314D8119A25466E4655F8447B1B
:101340000690CDE907820FCD0FC695E8030046F859
:10135000040B04F1380331700ECBBD6B2046A84757
:101360000AB0BDE8F08138B50C4D05F59473036003
:1013700005F5BA730446C0F8A03A05F5C873C0F87D
:10138000B03A05F5DC7500F52B601AF0A7FC204695
:1013900025601AF0F8FD204638BD00BF185A020833
:1013A000A0F52B60DFE710B50446FFF7DCFF204611
:1013B00023F006FC204610BDA0F52B60F3E730B407
:1013C000034600F130020024BFF35B8F52E8001F98
:1013D00042E80045002DF9D1BFF35B8F19B11B68BE
:1013E00030BC1B6A184730BC704708B50022027534
:1013F000FFF7E5FF4FF0FF3008BD10B5074B04467F
:1014000040F8543B20F03AFE04F13400FFF723FD8E
:101410002046FFF70FFE204610BD00BF0C5C0208FF
:1014200010B50446FFF7E9FF204623F0C9FB20462C
:1014300010BD054B10B504460360406A08B117F0B3
:1014400058FF204610BD00BF1C5C020810B50446C2
:10145000FFF7EFFF204623F0B3FB204610BD70B529
:101460000446406A00230E461546636208B117F031
:1014700040FF95B1442023F09BFB084A02600346DD
:10148000606A636208B117F034FF606A03682A4635
:1014900031461B69BDE87040184770BD605C0208AA
:1014A00070B5154692F844200E460AB1002070BD72
:1014B0008C1C01F12402498C0368202914D1DB68BB
:1014C000214698470028F1D0202333807384214699
:1014D000A5F846304835E31851F8042B45F8042B9D
:1014E0009942F9D10120E2E79B6821469847EBE752
:1014F00070B5531E154606460C461F3213F8011FE1
:10150000C1B99342FAD1002070BD06F1790305F10B
:10151000200255F8041B43F8041B9542F9D1043608
:1015200004F1200354F8042B46F8042B9C42F9D113
:101530000120E9E700222946204616F081FA2046DC
:1015400016F000FC0028E0D020220021204622F0E6
:10155000E6FAD8E72DE9F347454C07464548894662
:10156000904618F00FF9B4F8FC15102903D104F2D5
:10157000FE5018F0D1F821F051FD042101900DEB3F
:10158000010018F0C9F83E1D07F179054FF0000A77
:1015900094F8810C10F0400001D118F0F3F8B4F881
:1015A000802CC2F30C03C2F3C9021F2AC8BFA3F5E3
:1015B0008073B4F8802CCCBFC3F30C03002363F317
:1015C0000C021304A4F8802C4FD50021084618F013
:1015D000A3F894F8813C84F89DAC6FF3C71384F8AA
:1015E000813CD4F8303C0133C4F8303C17F068FF3C
:1015F000DFF884C02A460CF1200E634603CB734506
:10160000106051609C4602F10802F6D118F056F8BD
:1016100097F8793023F0070387F8793097F89830F6
:1016200003F03F0343F0400387F898300022294637
:10163000304616F005FA304616F084FB0028A7D194
:10164000304606F1200350F8042B49F8042B984249
:10165000F9D1294605F1200351F8042B48F8042B51
:101660009942F9D102B0BDE8F08717F097FEB8E7CC
:10167000E80400203D9F02082811002082B02DE9D7
:10168000F04F8FB004461993229B0093239BDDF803
:1016900090A00193934621F0C1FC269B03EB0A091D
:1016A000BDF86430C9F80800064633B9002738464B
:1016B0000FB0BDE8F04F02B0704723680DF166012E
:1016C000DB692046984707460028EFD0A046202235
:1016D00058F8593B20461B6A414604F128059847B3
:1016E00010220021284622F01AFA009BA362019BD7
:1016F000E362C4F830B006B1E6623148314C0D22E5
:10170000294609F0C0F941462F48082209F0BBF9E3
:10171000D4F8A00C036820225B6A4146984719233D
:101720008DF828302A460DF1290305F10C0852F8EE
:10173000041B43F8041B4245F9D198F800201A70A5
:10174000D4F8A00C9AFA9AF3ADF83630036802AADE
:101750009B6A0AA99847259802AA514607F074FE89
:1017600001238DF818300DF1190355F8042B43F8B7
:10177000042B4545F9D12A781A70269A259806AB8C
:10178000514617F0BBFDD4F8A00C0023ADF826306D
:1017900003680AAA9B6A06A9984709F1070402AAE6
:1017A0000AAB09F1FF3112F8010B13F8015B684035
:1017B00001F8010FA142F6D1C9F8086077E700BF30
:1017C0004C9F0208E8040020699F020882B02DE9BE
:1017D000F04F95B08A461EA981E80C00DDE928B3D8
:1017E0002A9E01932B9B0C3E9F19BDF87830D7F8A9
:1017F000089005462BB9002015B0BDE8F04F02B0A7
:10180000704703680DF17A01DB6998470028F2D030
:10181000A846202258F8593B28461B6A414605F144
:101820002804984710220021204622F078F9019BD5
:10183000C5F828B0EB62C5F830A0B9F1000F01D0AF
:10184000C5F82C903E483F4D0D22214609F01BF96A
:1018500041463D48082209F016F9D5F8A00C036866
:1018600020225B6A4146984701238DF820302246AA
:101870000DF1210304F10C0852F8041B43F8041B7A
:101880004245F9D198F800201A70D5F8A00C002331
:10189000ADF82E30036808A99B6A10AA98477B1EF2
:1018A00010A80CA9073713F801CF10F8012BBB4281
:1018B00082EA0C0201F8012BF5D108AB2C9A2B9887
:1018C000314617F01BFD19238DF840300DF141030F
:1018D00054F8042B43F8042B4445F9D122781A70AC
:1018E000D5F8A00C73BAADF84E30036804AC9B6A0F
:1018F000224610A998472C982246314607F0A4FDAD
:101900000CAB039410930398002300283FF474AFAA
:10191000109800283FF470AF8DF80B30039AD15C1B
:10192000109AD05C9DF80B20414001330A43082BEC
:101930008DF80B20F2D19DF80B000138C00F5BE74A
:10194000999F0208E8040020B69F0208F0B500F154
:10195000590789B03B4601F1200251F8044B43F886
:10196000044B9142F9D16C4600F1790200F19903E0
:10197000264610685168254603C508329A422C460F
:10198000F7D1384616F0DEF93A4631460546384674
:1019900016F056F80446384616F0D4F984F00104DF
:1019A00005432C433046202115F080FF04F0FF044E
:1019B000E04300F0010009B0F0BD10B50446006836
:1019C00008B117F091FC204610BD84B02DE9F34119
:1019D0009DF9448009AE0024B8F1100F86E80E008E
:1019E000DDE91357009443D1E82023F0E1F8264BBA
:1019F00003602C33C362A0F828800A2380F83030BB
:101A000000F1380200F12C0342634360CDE9000489
:101A100001A8FFF7D2FF009C9DF9442023683146BE
:101A20001A4E1B69204698472A463946304622F00E
:101A300021F9C5F580720021701922F070F8236831
:101A400012995B691022204698470C2384F82930AC
:101A500023683246D3F8188039462B462046C047C3
:101A60006846FFF7AAFF02B0BDE8F04104B0704736
:101A70004FF4947023F09CF810230385044B03600B
:101A80002C33C3620E23B9E7885C02088C11002056
:101A9000DC5C020810B591F85C31012B04460CD1D6
:101AA000064B1B7B022B08D0D1F81421096807F0E4
:101AB000CAFA10B1236F0133236710BDE804002078
:101AC000F0B505468DB007F04AF9284617F075F8CD
:101AD00095F988310933BCBFF72385F888312B6825
:101AE00028469B6B002498470594D5F85032049300
:101AF000B5F86C30039395F98831029395F8D93194
:101B0000019395F86130009305F51576EA6D95F827
:101B100060300146304615F0E9FB821C4CD0284B62
:101B2000984249D0D5F84C12264F304615F02FFB7D
:101B3000044618BB0146304615F050FB0446E8B990
:101B40004FF0FF33CDE90933CDE907330B93D7F8D5
:101B5000A43DD5F89C02DB070CD401681A4BCA6877
:101B60000969C3E90122C3E90712C3E90D21012371
:101B7000C7F8A43D144A07A913F02CFC97F8CD111F
:101B800001B10121304617F0D2F800230093012261
:101B900040F6B50105F5F07017F0ECF84CB90121ED
:101BA000304617F0C9F9044618B92B6828465B6D12
:101BB0009847B4FA84F4640920460DB0F0BD00BF24
:101BC0003DFDFFFFE80400200000002038B504467A
:101BD00006F0B2FF236804F515759B6F2046984701
:101BE00094F86010284614F049FDE16D284614F081
:101BF000DFFC94F86110284617F05BF894F8D911CF
:101C0000284617F075F8D4F84C12284615F0BFFA9C
:101C1000B4F86C10284615F057FA236820469B6BE1
:101C200098470146284613F0CDFF94F98831162BCA
:101C3000C4BF162384F8883194F98811284613F01C
:101C40008DFC064B284693F8CD1117F070F82368E9
:101C500020465B6D9847002038BD00BFE804002097
:101C600010B5036804469B6F984704F5157016F08D
:101C700071FF012010BD08B500F5157012F0B4FF1A
:101C8000003818BF012008BD38B5044600F51570AE
:101C900012F0AAFF10F0140F12D0114DD4F8442204
:101CA0002B681AB9C4F84432012038BD216F9B1A41
:101CB000B3EB410FF8D3C30604D40023C4F8443275
:101CC0000020F2E7236800225B6B40F201112046FE
:101CD00098472B68D4F844229B1A9842E4D8ECE742
:101CE000E8040020F0B5C36F85B00446002B3DD159
:101CF00090F82C32002B34D104F51575284616F0D7
:101D000029FF0021284616F009FF7F238DF80F30A8
:101D100000220123CDE9003289210DF10F0204F5E3
:101D2000F07013F09DFBD4F8E0011C4E0368052110
:101D3000DB6998473768D4F8E001D4F80C120368DF
:101D40001B6998470346D4F8E0018BB90368D4F8BF
:101D50000C121B699847236890B15B6D2046984729
:101D600004E00368DB6D98470028C5D005B0F0BDDE
:101D700033680268DB1B322BE8D8536D9847DAE7EB
:101D80009B6B204698470146284613F0AAFE96F81A
:101D9000CD11284616F0CBFF2368DEE7E8040020CB
:101DA00000F5157012F090BB1FB5FF238DF80130C0
:101DB0004FF6FF730022ADF802304FF4C073CDE947
:101DC0000123039390F863308DF8003003680446D4
:101DD0009B6F9847694604F5157010F0B5FB034BEF
:101DE000C11A4842484104B010BD00BF42FDFFFF88
:101DF000F0B5036805469B6F85B09847B5F86C4011
:101E0000B5F8A63205F515766CB91C460F2C1ADC10
:101E10000023009340F2762202236FF07F41304688
:101E200010F08CFD01E0A342F0D2012385F82C32A2
:101E30002B683349DB6C28469847284605B0BDE837
:101E4000F04006F0E9BF95F8A03242F210709840D9
:101E50001BF092FC2B490746D5F8A8021BF0E4FCC6
:101E6000014638461BF094FD1BF054FEA4F1100708
:101E7000D5F8C832BFB2474303F57E729742C7D345
:101E800004FB0004E41B04F57A74640800EBC00052
:101E9000844238BF04467D22FF1AE4006FF07F4180
:101EA000B4FBF2F4631EA7F57A778B424FEAC707BB
:101EB000B7FBF2F7B9D27B1E8B42B6D2022340F2B7
:101EC0007622304614F035FC0028AED1230C8DF874
:101ED0000830230A8DF809303B0C8DF80B300123B4
:101EE000CDE900337FBAD5F89C028DF80A4006236D
:101EF00002AA9421ADF80C7013F0B2FA95E700BF76
:101F0000257200080000204138B500F515752846F7
:101F10000C4614F077F8C4F81C01284612F075FE40
:101F200020F0C8FEC4F8240138BD10B5044600F501
:101F3000CA70FFF744FA04F5157012F07BFE002317
:101F400084F82C32C4F84432236820469B6C9847AE
:101F50002046BDE8104007F0AFBF2DE9F043002454
:101F60008BB005460E46A04600F51577002A58D0DE
:101F700090F8A432012B11D040F24971D0F89C02A4
:101F800013F0B8F840F26B71C0F30214D5F89C025C
:101F900013F0B0F8042CC0F300183ED80434E4B2B7
:101FA00095F86000D5F85C90B5F86C308DF8244059
:101FB00001248DF81C00ADF8143004FA00F0002361
:101FC0008DF81630CDF820901BF0DAFB49461BF057
:101FD000DFFC4FF083411BF0FBF90028034618BFDC
:101FE00023468DF818308DF81780DDE90501D5F806
:101FF0005442099B019000930396ADF80810DDE967
:102000000723A46F95F8D8113846A0474FF47A7388
:10201000B0FBF3F00BB0BDE8F083072C08BF082439
:10202000BEE7D0F854323846DB6F9847EEE738B554
:10203000D0F8D430082B04460D4607D1AC3016F04A
:1020400037FD014610B11548FEF7E4FCD4F8D43052
:10205000072B01DD20F092FFD4F8D80018B10368F7
:1020600000211B689847D4F8D03004EB8302013379
:10207000C2F8AC505A4202F0070203F0070358BFFF
:102080005342C4F8D030D4F8D4300133C4F8D4303B
:10209000D4F8FC300133C4F8FC3038BD201F0020D8
:1020A00038B5D0F8EC30022B04460D4607D1DC30B1
:1020B00016F0EDFC014610B11348FEF766FCD4F8AB
:1020C000EC30012B01DD20F059FFD4F8F00018B1FD
:1020D000036800211B689847D4F8E83004EB8302BA
:1020E000013303F0010348BF5B42C2F8DC50C4F87F
:1020F000E830D4F8EC300133C4F8EC30D4F8FC30DC
:102100000133C4F8FC3038BD9012002070B50F4B7D
:10211000044640F8683B19F0C2FDA36B3BB1E36D88
:10212000E56C1E1DAE420BD8A06B22F049FD606B22
:1021300008B122F045FD204619F0D0FD204670BDC3
:1021400055F8040B22F03CFDECE700BF305D0208BF
:1021500010B50446FFF7DAFF204622F031FD204695
:1021600010BD38B5D0F88C100F4B03600446A9B9E8
:10217000D4F88820D4F88400920021F0D0FCD4F860
:10218000840004F19C03984201D022F019FD074B12
:1021900023602046FFF7BAFF204638BD0D68084689
:1021A00022F00EFD2946E2E76C5D0208AC5D0208F4
:1021B00010B50446FFF7D5FF204622F001FD20466A
:1021C00010BD2DE9FF47D1E90037D0F804A05F40EA
:1021D000B7FBFAF60AFB167688460A463B463146B6
:1021E0000446FEF743FC28B1006818B10C3004B077
:1021F000BDE8F0871C2022F0DBFC034605464FF0CB
:10220000000998E8030043F8049B83E803000123D6
:10221000C5F81090A5F8149085F816900093E3681F
:10222000524604F1100102A81FF07EFB9DF8083011
:10223000C3B1039E012E04F1180A24D1C4F81890EA
:10224000D046A4460020A2684CF8080F22BB2068A4
:10225000504501D022F0B4FCB7FBF6F3C4E9008688
:1022600006FB13762368AF6153F82620B00082B3D3
:1022700012682A6053F826301D60E3680133E3607A
:1022800005F10C00B3E7304616F070F8B20049468D
:10229000804621F044FCD4E79369B3FBF6F106FBDA
:1022A0001133D2F800E058F8231059B9A168116031
:1022B000A26048F823C0116809B148F820201846E8
:1022C0007246C3E70968116058F823301A60034664
:1022D000F5E7A2682A60A5603AB192696168B2FB2D
:1022E000F1F601FB162243F8225004F108021A50BD
:1022F000C3E72DE9F0430546B1B014460E4631B1AF
:10230000D369DFF8DC90D3E90078B84519D1A5B1DD
:10231000AB68E4698BB1324901AA28460FF0DCF8BA
:1023200058B1D4E901739F421ED0BC2201A938469E
:1023300021F0A0FC6368BC336360012031B0BDE8CC
:10234000F0833946BC2201A821F094FCA27D218AA9
:10235000304618F0A5FDBC370028EFD001AA494649
:1023600030460FF061F9D0E71E4A0121204605F002
:102370008DFDD4F800800646A7EB080968B31A4B18
:10238000984206D9194B984201D91FF07CFA1FF0E8
:1023900077FABC20704322F00BFC0546BC2201A951
:1023A00005EB090021F066FC39462A46404617F045
:1023B0002DFD394600F1BC02384617F027FD0746CF
:1023C000B8F1000F02D0404622F0FAFBBC23C4E96A
:1023D000005703FB0655A560AFE70546DEE700BFE3
:1023E000E45D0208E69F0208414CAE0082985C0161
:1023F00070B59EB00F4B0093684614460E4611F020
:102400009DFA0025E4B2A54209D320223146684650
:1024100011F023FE684615F0BDFC1EB070BD621BB6
:10242000102A06EB050128BF1022684611F0E3FDD3
:102430001035E8E7045E020810B5054B044640F885
:102440002C3B15F04CFA204615F0C4FA204610BD7E
:10245000DC5C020810B50446FFF7EEFF204622F0D0
:10246000AFFB204610BD10B5054B044640F82C3B91
:1024700015F024FA204615F0ADFA204610BD00BF35
:10248000885C020810B50446FFF7EDFF204622F0F5
:1024900097FB204610BD002807DB044A41090123B1
:1024A00000F01F00834042F82130704700E100E057
:1024B00000280CDB4309064900F01F0020330122ED
:1024C000824041F82320BFF34F8FBFF36F8F7047D7
:1024D00000E100E008B53220FFF7EAFFBDE8084060
:1024E000014818F063BA00BFB01A0020164B30B58F
:1024F000DC68C4F30224C4F10703251D042B28BFA4
:102500000423062D4FF0FF358CBF033C002405FA51
:1025100003F321EA0303A54022EA0502A3400028B1
:1025200043EA0203ACBF00F16040084A4FEA0313DC
:10253000B8BF00F00F00DBB2AABF00F56140135432
:1025400080F8003330BD00BF00ED00E014ED00E086
:1025500008B590F82530022B03D00423C363012073
:1025600008BD03681A6822F00E021A601A6822F089
:1025700001021A60826C136823F480731360D0E93F
:10258000101303F01C02012393404B60D0E9133277
:102590005A60436D33B11A6822F480721A60D0E930
:1025A00016325A60012380F82530002380F8243049
:1025B000836B03B198470020D2E7074B5A69002A82
:1025C000BFBF064A9A6002F188329A60BABF586962
:1025D000C00F0020704700BF00400058230167452E
:1025E000044B5A6942F000425A615869C043C00F17
:1025F000704700BF004000580268436B9169126841
:1026000003B1184770471C4A436B934270B501F001
:1026100002020DB201F001041DD0184EB3421AD0CF
:10262000174EB34217D0002DACBF0023B8230CB116
:1026300043F0F2030AB143F0F403102902D143F04E
:10264000900303E0202901D143F0200301680A68C8
:1026500013430B6070BD002DACBF0023B8230CB139
:1026600043F0F2030AB143F0F4031029E7D0202924
:1026700008BF43F06003E9E7392A00080F2F00087C
:102680003B2B000890F84120602A4FF0000206D151
:10269000202180F8411080F84020026370470263D7
:1026A00080F8402090F892205AB990F84120202AD2
:1026B00007D1282280F84120024A42634FF40041AA
:1026C000A1E77047FD2D0008806A836B0BB10022E3
:1026D0009A63C36B0BB100229A63D3E711F0010335
:1026E00007D090F8413003F02803282B14BFF223C1
:1026F00042238A0709D590F8412002F02802282AAF
:102700000CBF43F0440343F0F4030A0401680A6871
:1027100048BF43F0B80322EA03030B60704700236D
:1027200080F8423090F8412010B5212A4FF0200265
:1027300080F841200BBF112212224363436307BF7D
:102740000263012102630221FFF7C8FF002380F822
:10275000403010BD08B503681A68002180F84210A7
:10276000510415D51A6822F480421A6090F841305D
:10277000292B13D1282380F8413021230363012121
:10278000FFF7ACFF002380F8403080F8903008BDA0
:102790001204EBD51A6822F40042E6E790F84130C3
:1027A0002A2BF4D1282380F841302223036302210D
:1027B000FFF794FF002380F84030BDE808400EF09A
:1027C000B9BC08B5164BC3622022002303634363E0
:1027D00080F8412080F842304B0712D503685A6ACE
:1027E000436A1A70436A01334362038D4BB1013B64
:1027F0000385438D013B9BB24385436C43F0040347
:10280000436448F20301FFF769FF03681022DA61AD
:10281000002380F84030BDE808400EF068BC00BFDF
:102820000000FFFF70B500223B4D90F8413080F86A
:102830004220C5624285426C283B0A43022B044673
:10284000426429D80321FFF749FF282380F841304B
:10285000324BA06B6363236B00283FD0112B01D058
:10286000212B3BD123681A68510442BF1A6822F415
:1028700080421A6090F82530012B2BD0284B8363BF
:10288000002384F84030FFF763FE002843D0A06B9C
:10289000836BBDE87040184748F20301FFF71EFF45
:1028A000FDF74EFC90F84130602B11D0202380F8CA
:1028B000413003689A6995060AD59A69D00605D50C
:1028C0001022DA61626C42F0040262642022DA6152
:1028D0000023BEE72046BDE87040D3E6E06B002849
:1028E000F8D0122B01D0222BF4D123681A681204DD
:1028F00042BF1A6822F400421A6090F82530012B7A
:10290000E8D0074B8363002384F84030FFF720FEB4
:1029100008B1E06BBCE770BD0000FFFFFD2D0008B3
:10292000C9260008036899691A6810B4CC0508D54F
:10293000140606D5446C44F0010444644FF48074DA
:10294000DC614C0508D5140606D5446C44F0080437
:1029500044644FF48064DC61890508D5120606D50D
:10296000426C42F0020242644FF40072DA61416C40
:1029700011F00B0F01D010BC54E710BC704773B5B9
:1029800005682023EB6190F84130212B04460E4668
:1029900034D10121FFF7A2FE112323636B6823F0DA
:1029A000FF7323F48B3323F4FF7323F001036B6075
:1029B00000236363F206A3F58033E36205D5102399
:1029C000EB61636C43F00403636494F84130602B63
:1029D00005D1730741BF6B6ADBB20193019B2046AF
:1029E000FDF7AEFB636C94F84120602A00D073B110
:1029F000616C204602B0BDE8704013E790F84130AA
:102A0000222BCBD10221FFF769FE1223C5E794F8F0
:102A10004120212A0AD1202284F84120236394F8FE
:102A2000422084F8403084F8423003E094F841209A
:102A3000222AF0D002B070BD73B590F84030012B5F
:102A4000044678D0012380F84030CB0612D5D60654
:102A500010D503681022DA61436C43F00403436429
:102A60002021FFF7D0FDFDF76BFB002084F840002C
:102A700002B070BD0D0641D550063FD525682B68C4
:102A800023F040032B60638D9BB25BB36968638D59
:102A90009BB2FF2BC1F309011AD9FF2323854FF005
:102AA00080730022268D009294F828202046FDF79E
:102AB00055FB638D9B1B9BB2638594F84130222BA1
:102AC0002B680CBF43F4004343F480432B60CCE7F6
:102AD000638D2385E36A13F5803F14BFE36A4FF0EB
:102AE0000073DEE76B689A0103D42046FFF717FEF8
:102AF000BBE740212046FFF795FEB6E74B0612D50F
:102B0000560610D5638D9BB2002BF2D123685A680C
:102B10009501AAD4E26A12F5803FE6D15A6842F4E0
:102B200080425A60A1E788069FD593069DD520462E
:102B3000FFF725FF99E702209AE713B590F8403098
:102B4000012B044600F08580012380F84030CB063D
:102B500012D5D30610D503681022DA61436C43F016
:102B6000040343642021FFF74EFDFDF7E9FA00203E
:102B700084F8400002B010BD880708D5930706D539
:102B80002368226D9A624FF0FF332365EFE7080652
:102B900036D5530634D510212046FFF734FD638D1A
:102BA0009BB24BB3638D9BB2FF2B17D90023FF223F
:102BB000E16C228500934FF0807389B2FDF7CEFA65
:102BC000638D228D9B1A9BB2638594F84120236804
:102BD000222A1A680CD142F400420BE0628DE16CAB
:102BE00092B2002322850093D2B24FF00073E4E743
:102BF00042F480421A60BAE74021FFF713FEB6E7BD
:102C000048061ED553061CD594F84110124A134BA2
:102C1000222918BF1346628D92B2FF2A08D9FF22DB
:102C2000E16C228500934FF0807389B22046C5E79E
:102C3000628DE16C92B222850093D2B24FF00073A4
:102C4000F3E7880693D5930691D52046FFF797FEC4
:102C50008DE702208EE700BF002000800024008066
:102C60002DE9F8430568D5F80090D0F82C8090F84D
:102C7000417007F0F7072023212F04460E46EB6131
:102C800063D148F20101FFF729FD27636B6843F424
:102C900000436B606B6823F0FF7323F48B3323F4E2
:102CA000FF7323F001036B602046FDF749FA19F426
:102CB000804F4FD02B6823F480432B60A36B1BB154
:102CC0001B685B689BB2638572070FD5636A6A6A8B
:102CD0001A70636A01336362238D2BB1013B238534
:102CE000638D013B9BB2638526F00406638D9BB226
:102CF0001BB1636C43F004036364F30611D519F050
:102D0000100F0ED0638D9BB2002B3DD194F8413053
:102D1000282B28D1B8F1007F25D131462046FFF776
:102D200050FD002384F84230656C6363002D3AD077
:102D3000616C2046FFF776FD94F84130282B58D17E
:102D400031462046BDE8F8433BE5222F9ED148F2AC
:102D5000020198E719F4004FB6D02B6823F4004322
:102D60002B60E36BABE794F841202368292A4FF0EE
:102D70001002DA61D5D118F5803FD2D02046FDF798
:102D8000DFF9FFF7E7FCCCE723681022DA61636C18
:102D900043F00403636438F08073C2D1616C204651
:102DA000FFF740FDBDE7E36A13F5803F0FD02046F3
:102DB000FFF7D0FC104BE362202384F8413084F805
:102DC000405025632046BDE8F8430EF090B994F8D2
:102DD000413084F84050222B4FF0200384F84130DA
:102DE000256304D12046BDE8F8430EF0A3B984F86A
:102DF0009050BDE8F88300BF0000FFFF70B590F869
:102E00004060C56A012E04460B467ED0012680F83C
:102E100040608E0607D5960605D5FFF721FF0020F6
:102E200084F8400070BDD90630D5D6062ED5628D07
:102E300092B2E2B994F84120282A07D1B5F1007F77
:102E400004D119462046FFF7BCFCE8E794F841207E
:102E50002368292A4FF01002DA61E0D115F5803F8E
:102E6000DDD02046FDF76CF9FFF774FCD7E7236847
:102E70001022DA61636C43F00403636435F08073FD
:102E8000CDD1616C2046FFF7CDFCC8E758071BD5B4
:102E9000510719D5638D9BB26BB123685A6A636A77
:102EA0001A70636A01336362238D013B2385638D4E
:102EB000013B9BB26385638D9BB2002BAFD115F5AF
:102EC000803FACD02046CFE71E0705D5100703D5BD
:102ED000204617F057FCA2E79907A0D593079ED587
:102EE000638D9BB26BB1636A226813F8011B916218
:102EF0006362638D013B9BB26385238D013B238518
:102F00008DE735F080738AD1DCE702208AE770B55F
:102F100090F84060C56A012E04460B4670D0012629
:102F200080F840608E0607D5960605D5FFF798FE17
:102F3000002084F8400070BDD80659D5D10657D579
:102F400012F4404F50D0D4E90E10E0B921B1520430
:102F500002D50A6852680AB323681022DA61636CEA
:102F600043F00403636494F8413035F08072DBB2BF
:102F7000DED1213B092B30D8DFE803F02D342F2F91
:102F80002F2F2F2F2D341604E0D50068406800281D
:102F9000DCD119B1500444BF0A68526894F841204A
:102FA000282A07D1B5F1007F04D119462046FFF742
:102FB00008FCBDE794F841202368292A4FF010024D
:102FC000DA61B5D115F5803FB2D02046FDF7B8F8EB
:102FD000FFF7C0FBACE721232363616C2046FFF7BA
:102FE00021FCA5E72223F7E723681022DA619FE797
:102FF00019079DD513079BD5204617F0C3FB97E70C
:10300000022098E74FF0B0431868C0F38020704763
:103010004FF0B0431868C0F3406070474FF0B043C2
:1030200010B59A68D96812F00C0205D00C2A4AD162
:1030300001F00303012B51D14FF0B0412B480B6835
:1030400013F0080306D00B6813F0080337D1D1F84A
:10305000941007E00C68240756BFD1F89430096833
:10306000C3F3032350F82330002A0CBF1846002076
:103070004FF0B0418A6802F00C020C2A1ED1CA68D7
:1030800002F00302022A2ED0032A06D10B68184A46
:1030900013F4801F174B18BF13464FF0B042D0688F
:1030A000D168D268C0F306205843C1F3021301333C
:1030B000B0FBF3F0530F0133B0FBF3F010BD0B681E
:1030C000C3F30313CEE7042A05D0082A06D11B68F0
:1030D00013F4801305D006480023C9E700231846DF
:1030E000C6E70448C4E7024BD7E700BF185A0208F6
:1030F0000024F4000048E80108B5FFF78FFF4FF007
:10310000B0439A68044BC2F3031203EB82031B6CB7
:10311000B0FBF3F008BD00BF185A020838B50546E9
:10312000FFF7EAFF4FF47A73B0FBF3F3013BB3F11F
:10313000807F01D3012038BD4FF0E022F0215361A0
:10314000094B002483F823100F2D4FF007039461DF
:103150001361EFD84FF0FF3022462946FFF7C6F93A
:10316000024B20461D66E6E700ED00E0000000206F
:10317000F8B54FF0B04304469D68DE6803689F06CB
:1031800005F00C0506F0030632D5016A1DB10C2DC1
:103190007CD1012E7AD109B90120F8BD4FF0B0439E
:1031A000A76A1A68100756BFD3F894301B681B092A
:1031B00003F0F0039F4255D93846FCF7EEFF002894
:1031C000EAD14FF0B042136843F00803136013686C
:1031D00023F0F0033B431360606AFCF7D5FFFFF771
:1031E0008BFF994B5866186EFFF798FF0028D4D1D3
:1031F0002268D00740F1AD80082D616803D00C2D06
:1032000071D1032E6FD10029C6D0910700F1B8808B
:10321000170740F10481A1694FF0B043002900F085
:10322000ED80D3F89410E06901F01006B04200F090
:10323000D28001F00306022EAED0CE0740F1C2804C
:10324000D3F89410814E21F00101C3F8941037682F
:10325000D3F89410890740F1B5803168C91B112952
:10326000F6D931E04FF0B042136843F00803136021
:10327000136823F0F0033B431360606AFCF784FF9C
:103280003846FCF78AFF0028A9D085E76F4A4FF03F
:10329000B043D9B1196841F001011960106819688B
:1032A00089070DD51A6842F008021A601A68A16AE7
:1032B00022F0F0020A431A60606AFCF765FF97E7A4
:1032C0001168091A0229EAD9032066E7196821F072
:1032D00001011960106819688F0789D51168091AEA
:1032E0000229F8D9F0E74FF0B043A768186820F436
:1032F00080103843B1F5803F186054480ED11968EA
:1033000041F48031196001684FF0B0473B689B037E
:103310001FD403685B1A642BF8D9D5E7B1F5041FF5
:1033200004D1196841F400111960E8E71F6827F417
:1033300080371F601F6827F400171F600029E2D143
:1033400007681968890304D50168C91B6429F8D97D
:10335000BAE793077FF55CAF042D03D00C2D0FD196
:10336000022E0DD12369002B3FF416AF4FF0B04170
:1033700060694B6823F0FE4343EA00634B6047E714
:10338000206932494FF0B04368B1186840F480704A
:1033900018600E68FFF736FE0028E7D10B689B1B0C
:1033A000022BF7D990E7186820F4807018600E6837
:1033B000FFF728FE00283FF42BAF0B689B1B022B66
:1033C000F6D981E74FF0B041D1F8943023F01003E3
:1033D0000343C1F894304FF0B0411C48D1F8943009
:1033E00043F00103C1F894300668D1F894309F0788
:1033F00015D403689B1B112BF7D965E7D3F89410FC
:10340000124821F00101C3F894100668D3F8941013
:10341000890704D50168891B1129F7D954E7570793
:103420004ED50B4A136813F4807F084B12D11168F4
:1034300041F48071116018681168CE050AD41968CA
:10344000091A0229F8D93FE700000020E80400200B
:1034500000040058E1684FF0B04200294BD021F041
:103460008000052802BFD2F8900040F00400C2F8A6
:1034700090004FF0B0421F68D2F8900040F0010079
:10348000C2F8900041F28836D2F89000800704D448
:103490001868C01BB042F7D916E721F00401812952
:1034A0001868D2F8901015D141F08001C2F8901040
:1034B00041F288364FF0B041D1F89020120504D582
:1034C000E36A002B3DD1002067E61A68121AB24267
:1034D000F2D9F9E621F08001C2F8901041F2883665
:1034E0004FF0B041D1F890201705E9D51A68121AAB
:1034F000B242F7D9E8E61868D2F8901021F08001BE
:10350000C2F8901041F28836D2F89010090513D411
:103510001868D2F8901021F00101C2F890104FF015
:10352000B04641F28831D6F890209207C8D51A6883
:10353000121A8A42F7D9C7E61968091AB142E3D9C3
:10354000C2E60C2D46D0022B4FF0B043314A196829
:1035500021F080711960116831D1FFF759FD20BB4E
:10356000D4E90C304FF0B0410343CD682A482840DD
:103570000343E06B0343206C0343606C0343A06B85
:1035800043EA0023CB600B6843F080730B60CB6889
:1035900043F08053CB601168FFF73AFD002892D1C9
:1035A00013685B1A0A2BF7D98EE613685B1A0A2B8D
:1035B000D3D989E613685B1A0A2B3FF685AEFFF76D
:1035C00027FD0028F6D14FF0B042144BD1680B40D4
:1035D000D36078E7012B3FF4DFAD4FF0B043D868FC
:1035E000236B00F003029A427FF4D6AD626B00F0C9
:1035F000700393427FF4D0ADA26B00F4FE43B3EBB3
:10360000022F7FF4C9AD636C00F06040C01A18BF90
:103610000120C2E5E80400208C80C111FCFFFEEE11
:1036200008B5FFF769FD4FF0B0439A68044BC2F349
:10363000022203EB8203D3F81434D84008BD00BF44
:10364000185A020808B5FFF757FD4FF0B0439A68C3
:10365000044BC2F3C22203EB8203D3F81434D840E4
:1036600008BD00BF185A020870B5044605682269F3
:10367000A3682968C069666A134362691343774A7D
:1036800003430A4013432B606B68E26823F4405302
:1036900013436B60724BA2699D421CBF236A1A439D
:1036A000AB6823F06E4323F430631343AB60EB6AE3
:1036B00023F00F033343EB626A4B9D4217D14FF067
:1036C000B043694AD3F8883003F0030343F440332E
:1036D000934264D0B3F1031F21D0013A934258D0F2
:1036E000B0F5004F40F0B480FFF7ACFF34E05F4B23
:1036F0009D4234D14FF0B0435D49D3F8883003F098
:103700000C0343F440228A4249D005D8FBB1594BFF
:103710009A423ED0012065E0B2F10C1FFAD1B0F51B
:10372000004F40D04FF40040534B626803EB460318
:10373000B3F83434B0FBF3F303EB5203B3FBF2F30F
:103740004FF6EF72A3F110019142E3D844E0B0F5D7
:10375000004F78D1FFF764FF002842D023E0404BB0
:103760009D42D7D14FF0B043D3F8883003F4406383
:10377000B3F5006F3DD006D883B3B3F5806FC9D1E0
:10378000FFF74CFC2CE0B3F5406FC3D14FF4004081
:1037900030E0B0F5004F5ED1FFF740FCDCE7B0F55C
:1037A000004F3648C0D1344B626803EB4603B3F890
:1037B0003434B0FBF3F0530803EB4003B3FBF2F3F4
:1037C0004FF6EF72A3F110019142A3D823F00F023C
:1037D00092B2C3F342031343EB6002E0FFF720FF12
:1037E00040B900204FF00113A3660023C4E91D3344
:1037F00070BD2248204B656803EB460305EB45018D
:10380000B3F83424B0FBF2F3994283D8B3EB053F0D
:1038100080D80023194619F0EFFD090241EA106132
:103820006B080002C0182A464FF0000341F1000166
:1038300019F0E2FD124BA0F540729A423FF66AAFD2
:10384000074BD860CDE7FFF7EBFE0028C9D06BE748
:10385000FFF7F8FEF9E7FFF7E1FBF6E7F369FFCFC3
:103860000080004000380140020003000044004096
:1038700008000C0004000C00185A02080024F40090
:10388000FFFC0F0038B5044638B3D0F888300BB9C8
:1038900080F8843025682423C4F888302B6823F00E
:1038A00001032B60A36A13B12046FCF7E1FC20461C
:1038B000FFF7DAFE012810D06B6823F490436B60A9
:1038C000AB6823F02A03AB602B6843F001032B6045
:1038D0002046BDE83840FDF719B9012038BD38B59C
:1038E000044658B3D0F888300BB980F88430256886
:1038F0002423C4F888302B6823F001032B60A36ACB
:1039000013B12046FCF7B4FC2046FFF7ADFE0128BA
:1039100014D06B6823F490436B60AB6823F02203F0
:10392000AB60AB6843F00803AB602B6843F0010366
:103930002B602046BDE83840FDF7E8B8012038BDCF
:10394000836810B5044613B1032201469847204608
:1039500010BD10B5034B044640F8043BFFF7F0FFE1
:10396000204610BD6C5E020810B50446FFF7F1FF5B
:10397000204621F025F9204610BD10B5034B044622
:1039800040F8043BFFF7DCFF204610BD6C5E0208E8
:1039900010B50446FFF7F1FF204621F011F920464B
:1039A00010BD10B5034B044640F8043BFFF7C8FFB9
:1039B000204610BD6C5E020810B50446FFF7F1FF0B
:1039C000204621F0FDF8204610BD0369DA6822F098
:1039D0000102DA60DA6822F00202DA60DA6822F0C4
:1039E0000402DA60DA6822F00802DA60DA6822F0AB
:1039F0001002DA60196A41F21112114208D1196AF3
:103A000040F24442114202BF1A6822F001021A60D9
:103A1000012280F84D20196821F00101196080F819
:103A20004E2080F84F2080F8502080F8512080F8F8
:103A3000522080F8532080F8542080F8552080F8D8
:103A4000562080F8572070470B4B98420BD0B0F1AE
:103A5000804F0AD003F5C053984208D003F5806325
:103A6000984206D0FEE700207047012070470220F0
:103A700070470320704700BF002C0140826810B5DA
:103A80000AB91DF00DFFBDE81040C36818470B4B85
:103A9000DA68024211D0D8600023012803F1010244
:103AA00008D10748DBB2142202FB0300043083680C
:103AB0001BB1E3E740081346EFE7704700080058E2
:103AC000C01A0020037F013B072B14D8DFE803F066
:103AD0000411130D1313130F012350F8040C1B01D1
:103AE00064331844836833B1C8E70323F5E704233C
:103AF000F3E70223F1E77047036870B5DD681E69DC
:103B0000B10704460BD5AA0709D56FF002021A6166
:103B1000012202779B69FFF7D5FF00232377700707
:103B20000DD569070BD523686FF004021A610222D4
:103B3000227720469B69FFF7C5FF002323773207D2
:103B40000DD52B070BD523686FF008021A610422EC
:103B500022772046DB69FFF7B5FF00232377F006C5
:103B60000DD5E9060BD523686FF010021A61082203
:103B700022772046DB69FFF7A5FF00232377F207B2
:103B80000CD5EB070AD5236854F8040C6FF001023A
:103B90001A61C36E13B16430FFF770FF300605D5AC
:103BA000290642BF23686FF080021A61F20505D52D
:103BB0002B0642BF23686FF480721A61700605D528
:103BC000690642BF23686FF040021A61B20605D54C
:103BD000AB0642BF23686FF020021A6170BD034B31
:103BE000D3F8200608B1043086E77047E0150020BE
:103BF000FFF7F5BF034BD3F8240608B104307BE789
:103C0000704700BFE0150020034BD3F8280608B129
:103C1000043071E7704700BFE0150020034BD3F874
:103C20002C0608B1043067E7704700BFE01500209C
:103C300020F0BEBF20F0BCBF20F0C2BF20F0C0BF4C
:103C400020F0BEBF08B5032818D8DFE800F002084E
:103C50000D120120FCF70DFC4FF0904008BD022032
:103C6000FCF707FC0648F9E70420FCF702FC0548CE
:103C7000F4E78020FCF7FDFB0348EFE70020EDE7C9
:103C80000004004800080048001C00484FF0B04302
:103C900082B09A6D02439A659B6D03400193019B2C
:103CA00002B070474FF0E0230B4A82B01168986968
:103CB000019010689A6900925A69884214BF009B6B
:103CC000019B01324FF47A71D31A4B43B3FBF2F3E9
:103CD00001FB003002B07047E8040020094B70B5CA
:103CE00000261D684FF47A73B5FBF3F5C0E9005662
:103CF0000446FFF7D7FF044B03FB0500A0603046E6
:103D000070BD00BFE8040020C0BDF0FF024A136888
:103D100001331360704700BFE80400200C4BD3F858
:103D2000FC20D2015EBFD3F8FC2042F08072C3F8C1
:103D3000FC20084B00225A601A6842F001021A6007
:103D400000BF00BF00BF5868B0FA80F0400970475C
:103D500000ED00E0001000E0012098E6022096E669
:103D6000042094E6082092E6102090E638B5052459
:103D70002025A8B2FFF78BFE013C4FEA4505F8D19C
:103D800038BD38B506244FF48065A8B2FFF77FFE32
:103D9000013C4FEA4505F8D138BD012A02D0022A7C
:103DA00018BF0022FCF7E2BEF8B5471C06460C46D9
:103DB00000D1FEE73F4B00F00F0203EB8203C0F39C
:103DC0000310D3F86414FFF73DFF91FAA1F3B3FA9F
:103DD00083F3876803225B0002FA03F391FAA1F2EE
:103DE000B2FA82F227EA03075200032393403B43CF
:103DF00004F007058360032D03D8DFE805F05703BF
:103E00002559FEE7012391FAA1F2B2FA82F206687F
:103E10005200032707FA02F226EA020691FAA1F2FB
:103E2000B2FA82F252009340013D3343012D036008
:103E300005D8436822074CBF0B438B434360C4F350
:103E40000112BDE8F840A8E7C4F306227F2A17D084
:103E5000360717D50B0A93FAA3F6B6FA86F6476A21
:103E600093FAA3F3B6004FF00F0CB3FA83F30CFAF6
:103E700006F69B0027EA060602FA03F33343436281
:103E80000223C0E791FAA1F3B3FA83F3066A9B0019
:103E90000F2707FA03F326EA030691FAA1F3B3FA10
:103EA00083F39B009A4032430262E9E70023AAE7CA
:103EB0000323A8E7185A0208431C05D1704798420B
:103EC00001D1896870E70C310B685A1CF7D1FEE705
:103ED000431C02D1002070470C310B685A1CF9D0EA
:103EE0009842F9D14868704703468B42084604D08F
:103EF0001BB100290CBF1846002070474FF0B0439B
:103F00001A6842F061021A604FF4E0229A6061225E
:103F10001A60064ADA6000229A6140F23F321A6261
:103F2000034B4FF000629A60704700BF000104220B
:103F300000ED00E04FF0B04382B01A6E02431A6603
:103F40001B6E03400193019B02B0704703680C4A4B
:103F5000934202D14FF40060ECE7B3F1804F01D1FE
:103F6000012093E6074A934202D14FF40030F3E771
:103F7000054A934202D14FF48020EDE7704700BF1D
:103F8000002C01400044014000480140431C10D077
:103F90000C4B984210D007D8B0F1804F0ED0A3F54B
:103FA000C05398420CD0FEE7074B9842FBD11D202E
:103FB00070476FF00D0070471C2070471B20704742
:103FC000182070470044014000480140431C10D0B5
:103FD0000C4B984210D007D8B0F1804F0ED0A3F50B
:103FE000C05398420CD0FEE7074B9842FBD11D20EE
:103FF00070476FF00D0070471C2070471B20704702
:104000001A207047004401400048014090F8B12058
:10401000084B03EB8203D3F83036D3F88800D3F88B
:104020008C30184300F02200A0F12203584258417E
:10403000704700BFE015002010B5044650F8043961
:10404000DA69D1070BD501221A62FFF7DFFFA8B9A1
:1040500004F1AE012046BDE8104016F0CBBBDA6992
:10406000920701D50222EFE7DA69510701D5042250
:10407000EAE7DA691207E8D50822E5E710BD036828
:10408000D9691A682DE9F04140F60F0631429D6862
:10409000044610D18E0640F1BA8002F0200605F0E9
:1040A00080573E4300F0B380436F002B00F0AD809B
:1040B000BDE8F0411847AF4EAF482E4010403043A6
:1040C00000F0A580CF0709D5D00507D501201862DB
:1040D000D4F8900040F00100C4F890008F0709D593
:1040E000E80707D502201862D4F8900040F00400D9
:1040F000C4F890004F0709D5E80707D504201862D7
:10410000D4F8900040F00200C4F890000F070BD5DF
:1041100002F02000304307D008201862D4F8900045
:1041200040F00800C4F890000E050AD5500108D5EB
:104130004FF400601862D4F8903043F02003C4F8C4
:104140009030D4F89030002B5FD0890609D502F06A
:10415000200205F080552A4303D0636F0BB120463F
:1041600098472368D4F890109A6801F0280102F06B
:10417000400252EA010543D053E8002F22F4907226
:1041800043E800210029F7D17C4803F1080252E8F6
:10419000002F024003F1080545E800210029F4D171
:1041A000E26E012A07D153E8002F22F0100243E803
:1041B00000210029F7D12022C4F88C200022E266D9
:1041C00062679A68520617D503F1080252E8002F79
:1041D00022F0400203F1080040E800210029F3D159
:1041E000D4F8800040B1664B8363FEF7B1F960B14B
:1041F000D4F88000836B5BE72046BDE8F0411BE705
:104200002046FFF719FFC4F89050BDE8F081E06E3A
:10421000012840F0B780CF0640F1B480D60640F1C7
:10422000B18010221A629A68500671D5D4F88020A5
:104230001068416889B20029E7D0B4F85C508D421B
:10424000E3D9A4F85E100168890634D453E8001F4E
:1042500021F4807143E800100028F7D103F1080130
:1042600051E8001F21F0010103F1080545E80010A5
:104270000028F3D103F1080151E8001F21F04001AB
:1042800003F1080545E800100028F3D12021C4F807
:104290008C10E06653E8001F21F0100143E8001085
:1042A0000028F7D13AB192F82530022B08D0042328
:1042B000D36382F8240002232367B4F85E30A4E7B6
:1042C0001368906C196821F00E011960016821F4DF
:1042D00080710160196821F001011960D2E91003B1
:1042E00003F01C0101238B404360D2E91331596074
:1042F000536D33B1196821F480711960D2E9163118
:104300005960012382F82530002382F82430D2E757
:10431000B4F85E20B4F85E10B4F85C0089B292B2D2
:1043200000293FF472AF90423FF46FAF53E8002F83
:1043300022F4907243E800210029F7D10F4803F1DD
:10434000080252E8002F024003F1080545E8002169
:104350000029F4D12022C4F88C206167E16653E87B
:10436000002F22F0100243E800210029F7D1022398
:1043700023674AE70100001020010004FEFFFFEF61
:10438000ED430008CF020BD56E0209D54FF4801221
:1043900004F1AE0120461A62BDE8F04116F02ABAD7
:1043A00008060BD502F0800005F40005284305D06F
:1043B000A36F002B3FF429AF204679E649067FF52D
:1043C00024AF52067FF521AF53E8002F22F04002C0
:1043D00043E800210029F7D12023C4F88830A167E1
:1043E000D4F89830201FBDE8F0411847806A0023B8
:1043F000A0F85E30A0F856301EE62DE9F84F0368AD
:10440000B0F86060D3F81CB01F689D68D0F88C20AD
:10441000222A044640F0B580B0F8683043B1DFF896
:104420006C91DFF86CA14FF000081BF0200F20D139
:10443000B4F85E309BB2D3B1B4F868209A4216D972
:10444000226802F1080353E8003F23F0805308324A
:1044500042E8003122680029F2D14E4B636752E8EE
:10446000003F43F0200342E800310029F7D1BDE8C6
:10447000F88F2368A26D5B6A33401370A36D01331C
:10448000A365B4F85E30013B9BB2A4F85E302368AC
:10449000D3F81CB01BF0070F2ED01BF0010F09D072
:1044A000F90507D501221A62D4F8902042F00102E2
:1044B000C4F890201BF0020F09D0EA0707D50222AA
:1044C0001A62D4F8902042F00402C4F890201BF045
:1044D000040F09D0E80707D504221A62D4F89030F7
:1044E00043F00203C4F89030D4F8903023B1204652
:1044F000FFF7A2FDC4F89080B4F85E309BB2002BA9
:1045000093D1226852E8003F23F4807342E80031DF
:1045100023680029F5D103F1080252E8002F02EACE
:10452000090203F1080040E800210029F3D120220C
:104530005345C4F88C20616721670AD05A6811027C
:1045400007D553E8002F22F0806243E800210029BC
:10455000F7D1E26E012A10D10022E26653E8002F63
:1045600022F0100243E800210029F7D1DA69D206CF
:104570007FF55BAF10221A6257E72046FBF7A1FFD9
:1045800053E79A6942F008029A6170E7FEFFFFEF75
:1045900000800040CB0400082DE9F84F0368B0F814
:1045A0006060D3F81CB01F689D68D0F88C20222A68
:1045B000044640F0B380B0F8683043B1DFF868914A
:1045C000DFF868A14FF000081BF0200F20D1B4F8ED
:1045D0005E309BB2D3B1B4F868209A4216D92268F3
:1045E00002F1080353E8003F23F08053083242E809
:1045F000003122680029F2D14D4B636752E8003F39
:1046000043F0200342E800310029F7D1BDE8F88FDC
:104610002368A26D596A314022F8021BA265B4F8E2
:104620005E20013A92B2A4F85E20D3F81CB01BF0D1
:10463000070F2ED01BF0010F09D0F90507D5012275
:104640001A62D4F8902042F00102C4F890201BF0C6
:10465000020F09D0EA0707D502221A62D4F8902087
:1046600042F00402C4F890201BF0040F09D0E807C0
:1046700007D504221A62D4F8903043F00203C4F83C
:104680009030D4F8903023B12046FFF7D5FCC4F821
:104690009080B4F85E309BB2002B95D1226852E82E
:1046A000003F23F4807342E8003123680029F5D1EC
:1046B00003F1080252E8002F02EA090203F10800A0
:1046C00040E800210029F3D120225345C4F88C2072
:1046D000616721670AD05A68110207D553E8002F95
:1046E00022F0806243E800210029F7D1E26E012A1E
:1046F00010D10022E26653E8002F22F0100243E8B6
:1047000000210029F7D1DA69D2067FF55DAF1022CA
:104710001A6259E72046FBF7D4FE55E79A6942F042
:1047200008029A6172E700BFFEFFFFEF00800040C1
:1047300089050008034B1022C3F88421024BD3F8EB
:1047400030069CE400E100E0E0150020044B20224C
:10475000C3F88421034BD3F8340600B18FE47047CB
:1047600000E100E0E0150020034B4022C3F8842163
:10477000024BD3F8380682E400E100E0E0150020A7
:104780002DE9F04FD0F8A0A09DB0CDE90412044669
:10479000B14906935046269B0793FFF799FBD4F83F
:1047A000A490AE4900904846FFF792FBD4F8A8B019
:1047B000AB4906465846FFF78BFBD4F8AC30A94905
:1047C000019380461846FFF783FBA44902905046A8
:1047D000FFF77EFBA04903904846FFF779FB009B5B
:1047E00005461BB9039B002B00F07D81B9F1FF3F0B
:1047F00003D016B9002D00F07681BBF1FF3F03D046
:10480000B8F1000F00F06F81019B013303D0029BD0
:10481000002B00F0688100983146FFF765FB2060AF
:1048200020B903982946FFF75FFB206020684146C6
:10483000FFF75AFB0299FFF757FB07462060002855
:1048400000F05181884B984240F097804FF0B04380
:104850004FF480401A6C42F480421A641A6C22F4BD
:1048600080421A64FFF766FB2423A4F8B030009B53
:10487000002B00F0B08078495046FFF71DFB1EB1B9
:1048800076494846FFF718FB4FF00009B8F1000FD2
:1048900005D073495846FFF70FFB4FF48078029B11
:1048A0002BB17049019848F40078FFF705FB94F8A4
:1048B000B1206E4B94F9B000C4F83C9003EB820336
:1048C00004F1040AC3F830A6049BA360059BE360CF
:1048D000079B2361069B63610C230022C4E9063811
:1048E0000823E3626760226262620121FDF7FEFD38
:1048F0005F4B9F4240F06381049A94F88830B2F590
:10490000165F00F286808B4275D15046002E00F073
:10491000F080FEF7B7FF002800F0E5804822002174
:104920000AA81FF0FCF8534A136843F4807313601D
:104930004FF48060FFF7AAF94FF0B043D3F890200E
:1049400042F00102C3F89020D3F89020910709D4D7
:10495000D3F8902022F01802C3F8902004230A9381
:1049600081230D930A9B002B00F0C9800AA8FEF753
:10497000FFFB002800F0C380FEE73F4B984210D1B8
:104980004FF0B0434FF400309A6B42F400329A6318
:104990009A6B22F400329A63FFF778F940F22513FC
:1049A00063E7334B98427FF462AF4FF0B043DA6B6A
:1049B00042F00102DA63DA6B22F00102DA63DA6DA7
:1049C00042F00102DA65DB6D03F001030993099BF4
:1049D00040F2262349E7039B002B3FF455AF1F49C4
:1049E0005046FFF769FA1DB11B494846FFF764FAC4
:1049F0004FF400494AE784F88810616851E8003FA5
:104A000043F0020341E80032002AF6D184F88820FE
:104A10007BE7012B48D15046002E5FD0FEF732FFD6
:104A2000002860D0FEF7EEFA2368002840F0BC8032
:104A3000BB422FD10020FBF73AFD16B9002D00F044
:104A400087805046FEF71EFF00284CD04FF4806050
:104A5000FBF72DFD22E000BFBC5E0208F85E0208F5
:104A6000345F02087C5F020800380140E015002036
:104A7000008000400004005800440040FEF7C2FAE5
:104A8000002840F093802268504B9A42D2D0002EEA
:104A900000F091805046FEF7F5FE20B350461DB061
:104AA000BDE8F04FFEF7EEBE84F88810616851E86B
:104AB000003F23F0020341E80032002AF6D184F8D7
:104AC0008820504656B1FEF7DDFE60B1FEF79AFA37
:104AD0003E4B2268002857D19A42AAE735B9FEF723
:104AE000FEFE0028CAD11DB0BDE8F08FFEF7CAFE59
:104AF000F7E7002D7FF40DAFFEF7F1FE0BE74FF067
:104B0000B043D3F890309B07B8D527682F4B9F420E
:104B100003D14FF44060FBF7CAFC5046002EE5D1AC
:104B2000002DE3D1FEF7DBFE0028DCD0FEF76AFAA9
:104B3000264BE0B19F4215D05046FEF7D0FE00282C
:104B4000D1D02268214B9A4213D10020FBF7AFFC51
:104B50005046FEF7C4FE0028C5D04FF48060FBF736
:104B6000A6FC0BE04FF40060FBF7A1FCE4E79F42DA
:104B7000ECD05046FEF7B3FE0028B4D050461DB02E
:104B8000BDE8F04FFEF7ABBE9A4206D14FF400608D
:104B9000FBF78DFC0EB9002DCED05046FEF772FE0D
:104BA00000287FF470AF9EE7BB42EEE72268074B18
:104BB0009A42EFD1EAE7002D7FF46CAFD9E7002EDF
:104BC0007FF46CAF002D7FF469AFD7E70080004021
:104BD0000A490346886E10B50344EFF308829342F6
:104BE00005D9074B0C221A604FF0FF3010BD054A63
:104BF000054C121B9342F4D28B66F7E700000020AD
:104C0000B053002000000120000400004FF0FF30EE
:104C100070474FF400534B600020704701207047ED
:104C20000020704700207047FEE7034B16221A60F1
:104C30004FF0FF30704700BFB05300200120704795
:104C40007047814210B51346A1EB000405D0014620
:104C5000224618461EF049FF0346181910BD73B5C9
:104C6000531A0F2B04460D461646019306D900220F
:104C700001A91DF0E1F9019B2060A360324629469D
:104C800020681DF039FA019B226863600021D1542D
:104C900002B070BD08B500F12C0200F14403002001
:104CA00052F8041F9A420844FAD118F065FD0349EE
:104CB00018F06EFE024918F0B7FD08BD00606A47A3
:104CC0000000C8420B685A89042A2DE9F047846E17
:104CD00005460E463BD11F4A1F480C334FF48071E6
:104CE00004F0EEFB236800F1180100225B6B204604
:104CF00098471A4B8146D3F83C07FFF7CBFF184B78
:104D000094F8788094F879A01F6818F0DDFEAAEB7B
:104D100008034343642293FBF2F301224344D0444B
:104D200048FA02F8DBB2616F02FA03F302FA08F202
:104D300002EB4A0213440F44A26E07EB490702FB41
:104D4000037777602846BDE8F04704F0B5B8988946
:104D50001830C7E7B85F02081C1C0020E0150020CF
:104D6000E804002008B500F1440200F59A73002021
:104D700052F8041F9A420844FAD118F0FDFC034986
:104D800018F006FE024918F04FFD08BD00BA5B4A54
:104D90000000C84238B579B190F84151FFF77AFF69
:104DA0000446284618F0ECFC0146204618F0FCFAB0
:104DB000003818BF012038BD90F84051EEE7134B82
:104DC00070B5044693F8CC01E8B9114B1149D3F8FA
:104DD0004037DE68304618F0E7FAA8B12046FFF702
:104DE000C1FF054694F8420118F0CAFC314618F09C
:104DF0001BFD084918F0CCFD0146284618F0D4FAEE
:104E0000003818BF012070BD0120FCE7E804002035
:104E1000E01500200000C84270B505460E46104659
:104E200082B12B6801241B682C7528460021984705
:104E3000084B83F84447BFF35B8F20462E63BFF3D4
:104E40005B8F70BDBFF35B8F2B6BBFF35B8F002B52
:104E5000E7D0F6E7E0150020034B1A68436882604C
:104E60001344C360704700BFE804002038B50368EE
:104E7000094DDB69C5F848070446984701462046B6
:104E8000FFF7EAFF002902DB23681B68984700232D
:104E9000C5F8483738BD00BFE0150020024B41601F
:104EA0001B681944C1607047E8040020002100F528
:104EB0002B60F3E710B5074B074AD3F84C4712684D
:104EC000D3F850374FF47A71121BB2FBF1F2D018BD
:104ED00010BD00BFE0150020E8040020044B93F84B
:104EE0005837834201D30846E4E70020704700BFEB
:104EF000E01500202DE9F3470E4605464B493046A4
:104F00001746984618F092FA20B9494905222846D2
:104F1000FBF7D2FB4749304618F088FA20B94649DA
:104F200005222846FBF7C8FB4449304618F07EFAB4
:104F300020B9434905222846FBF7BEFB41493046CC
:104F400018F074FA20B9404905222846FBF7B4FB53
:104F50003E49304618F06AFA20B93D4905222846F4
:104F6000FBF7AAFB01210846FFF7B8FFDFF8E49042
:104F7000002847D0384BB0FBF3F203FB120000F5DA
:104F8000A83404F5C0743549B4FBF3F2284603FB9A
:104F900012444FF461633246B4FBF3FA03FB1A4444
:104FA00013F030F92E49284613F02CF93C21B4FBBC
:104FB000F1F301FB1344D9F800202A4900944FF47F
:104FC0007A70B2FBF0F228460192524613F01AF9B9
:104FD000254BD3F8484764B12449284613F0C6F856
:104FE000E169626A2846FBF767FB2149284613F00E
:104FF000BDF843463A463146284602B0BDE8F04780
:10500000FCF7D8B832461549284613F0FBF8144986
:10501000284613F0F7F8D9F8002016494FF47A73B0
:105020002846B2FBF3F213F0EDF8D1E7089F02082F
:105030000E9F0208149F02081A9F0208209F020870
:10504000269F02082C9F0208329F020800A0020837
:1050500006A00208E8040020805101000CA002080C
:10506000389F020810A00208E015002034A00208B2
:1050700036A0020825A00208A0F52A6018F094BD09
:105080000AB11EF022BD1046704730B5036D0A6D9F
:1050900093428DB004460D4623D1012B18D100F167
:1050A000540106A817F0B0FC05F15401684617F04A
:1050B000ABFC079A019B9A420DD100990698FFF725
:1050C000DFFF40B968461CF0D9FF06A81CF0D6FFE8
:1050D00000200DB030BD68461CF0D0FF06A81CF0C3
:1050E000CDFF2B6D2365012B1FD105F1540106A8BF
:1050F00017F08AFC04F154001CF097FF054606A83F
:105100001CF093FF079AB0B11AB10699606D1CF0BC
:10511000D8FF079B626DA3650021D154069A002336
:10512000079306A813701CF0A9FF214604F128007C
:1051300016F038FECCE7069808992DB1C4E915029F
:10514000E16508AB0693E9E7636DE56DE165C4E9E8
:105150001502002BF5D006930895DFE70120704774
:10516000036810B5DB6800219847044620B14FF46E
:10517000F07200211EF0D3FC204610BD03460068EB
:10518000196010B103685B681847704773B5531A0C
:105190000F2B04460D461646019306D9002201A99D
:1051A0001CF04AFF019B2060A3603246294620681C
:1051B0001CF09DFF019B226863600021D15402B066
:1051C00070BD38B9054B06481A7B064B022A08BF4A
:1051D000184670474FF47A7358437047E80400202C
:1051E00080EE3600002E93020021084616F0E2BA47
:1051F0000121002016F0DEBA10B5044614F03AFD85
:105200001549D1F85C3701F50562934211D001F5DB
:1052100006629B1A18BF01236375D1F8703893F8A2
:105220005930012B0D4B06D11B68C1F8743864202E
:1052300010BD0023F0E7D3F8A400421E0332F6D8D5
:105240001C68FFF7BEFFD1F874381844A042EED2B4
:10525000102014F051FDEAE7E0150020E8040020DA
:1052600038B504460068844200D138BD05681FF097
:10527000A7FC2846F7E72DE9FF4705461D4B55F8E3
:10528000047F0360044601AE4FF0000AAF4206D12E
:105290006068854229D1204604B0BDE8F087CDE999
:1052A0000166D7F80880CDF80CA0D8F80010884522
:1052B00004D13046FFF7D4FF3F68E7E78B68D1F8A9
:1052C00000909C420FD1019881420CD081450AD0B8
:1052D0004A461BF0FAFF039B01330393D8F80830CA
:1052E000013BC8F808304946E1E706681FF068FC52
:1052F0003046CEE7B87202080F4B10B50360843316
:105300000446C0F89431D0F8CC0108B11FF058FC25
:1053100004F5CA7016F0E2FC2046084B40F83C3B0E
:10532000FFF7A9FF04F12000FFF7A5FF201DFFF7FD
:10533000A2FF204610BD00BF08600208B860020846
:10534000A0F5CA70D8E710B50446FFF7D5FF204690
:105350001FF036FC204610BDA0F5CA70F3E710B56B
:105360000446FFF788FF20461FF02AFC204610BDA8
:105370002DE9F74FD0E901840368A4EB0806B610C5
:10538000B34205460F469146B3462DD8444529D031
:1053900054F8041CD1F8586166B991F8222197F8A5
:1053A00022319A421ED2043C84605648D0F87838A4
:1053B0009B6894E0221F13460C46D4F858A1BAF11A
:1053C000000F7DD0984502D053F8044DF5E74E4BC1
:1053D0001B689E4206D2D7F858310BB19E4201D9C4
:1053E000AA60E2E7002083E00AB100231370C146FF
:1053F000002E0ADCEB689C4228D04C4504F10403E3
:1054000017D12760AB60012078E04FEA660A09EB0C
:105410008A0359F82A100193384600F0D1F930B9BF
:10542000019BA6EB0A0A03F104090AF1FF3A56466A
:10543000DEE7214654F8042C41F804294846AB60C5
:10544000224616F079FDC9F80070DCE76FF0604382
:105450009B4502D12D481CF01CFA444527D10BF185
:10546000010ABAF1000F29D06FF060439A4528BFB6
:105470009A46504612F07AFF0646A9EB08033246D8
:10548000F7504946404614F0C1FC2146021D4846EB
:1054900014F0BCFC0446B8F1000F02D040461FF0E7
:1054A0008FFBC5E9016406EB8A06EE60ABE7BBEB58
:1054B0004B0F4FEA4B0AD4D99A46DAE75646DCE757
:1054C00094F822C197F82201844580D21946281DFC
:1054D00016F000FB0B48D0F878389B68214600F6A0
:1054E00078009847002239462846FFF741FF0120FF
:1054F000B9F1000F02D0012389F8003003B0BDE8F4
:10550000F08F00BFE0150020E8040020E69F0208AD
:1055100038B5054600200C4614F032FE05F58A70B9
:1055200014F006FC2046BDE8384016F067B838B5E0
:10553000044608460D4605F067F8D4F88C30202B59
:105540000AD1AB89012B01D0422B0BD1201D14F0C5
:105550006FFB08B114F086FBD4F88C301F2B0ADDEA
:105560001DF00CFD284614F07DFBD4F8FC3001330F
:10557000C4F8FC3038BDD4F8900018B1036800219D
:105580001B689847D4F8883004EB830201335560D8
:105590005A4202F01F0203F01F0358BF5342C4F8DF
:1055A0008830D4F88C300133C4F88C30DDE770B526
:1055B000056804460E46A54201D1002070BDA868CA
:1055C000036831469B6898470028F7D12D68F2E7B9
:1055D000C36810B50A4663B9806800B910BD116888
:1055E0004368994203D1516883689942F6D00068B4
:1055F000F3E7D1E900314B404168B3FBF1F401FB23
:105600001431FBF733FA0028E8D00068E6E70068B9
:1056100010B9024BD3F8F005704700BFE804002032
:10562000F8B5154B1B7E042B04460D4602D100260F
:105630003046F8BD866E002EF9D091F82021002A60
:10564000F5D0336808461F6BFFF7E1FF13460146AC
:10565000D5F814213046B84706460028E7D028463A
:1056600013F000FE236829465B6B20469847E36EE3
:105670000133E366DCE700BFE80400207FB50023C8
:105680000DF10F02009205461A4630308DF80F30AA
:105690000C4613F0C9FC9DF80F30064663B3214653
:1056A0002846FFF7BDFF50B95EB1EB6E0133EB66E4
:1056B00094F82A315BB921462846FCF7EBF9012022
:1056C00003E09DF80F30CBB1002004B070BD94F81A
:1056D00020219A42EFD1D4F814212168284603F002
:1056E000F9FC0028EBD1204613F0BCFD2B682146C5
:1056F0005B6B28469847E2E70028D6D1084BD3F8E1
:105700008C38002BE0D0D4F8140103F12002E833E8
:1057100052F8041F09B18842C7D09A42F8D1D3E7A2
:10572000E015002038B504460846FFF770FF6060BA
:105730000B7A237208460D4614F012FA84F8200101
:105740002B680BB195F8213184F8213194F822317E
:1057500013B9462384F82231D5F81431C4F8043142
:1057600038BD37B55389042B18BF0D4B144620465E
:1057700014BF93F89028127AFFF749FF0023009393
:105780000D4613460146D4F81421284614F0BAF900
:1057900021460546FFF7C6FF284603B030BD00BFCF
:1057A000E0150020036833B1044AD2F8F005C31AAB
:1057B0005842584170470120704700BFE80400205C
:1057C00038B5D0F85831D1F858411D1E18BF012501
:1057D000003C18BF0124A54203D0B3FA83F040096E
:1057E00038BD90F8223191F822219A4203D034BF7B
:1057F00001200020F4E7FFF7D5FF18B9BDE83840D5
:105800000846CFE70020EBE72DE9FF416E4686E82A
:105810000600044696E8030002AB04F1840783E81F
:10582000050019463846FFF7D3FE90B3027D437D4D
:10583000C5689A4210D22846FFF7B4FF18B9414B09
:105840001B7B022B08D02846FFF7E1FED5F8142178
:105850000146204603F0F7FBD4F89030002B50D1DE
:10586000D4F88C2004F18C0352B1DDE900065168B4
:10587000884202D191688E4210D01168134659B9FE
:105880003148D0F87838294600F678009B68984768
:10589000012004B0BDE8F0810A46E8E71868D4F8B2
:1058A00088208169B1FBF2F602FB1611D4F884203E
:1058B000066852F82170BB424FEA810C33D156B1D1
:1058C000B769D4F888E0B7FBFEF80EFB1877B94249
:1058D0000DD042F8273052F80C7004F18C018F4241
:1058E0004FF0000108BFC4F88C6042F80C10026849
:1058F0001A601FF065F9D4F89030013BC4F890307D
:10590000BEE7DDE900325340D4F88820B3FBF2F162
:10591000384602FB11313246FBF7A8F8034600284F
:10592000AED00068C2E7002EE1D0B669D4F8887026
:10593000B6FBF7FC07FB1C66B14218BF42F82630E5
:10594000D5E700BFE8040020E015002082B0CDE9D3
:10595000001202AB13E9060002B055E730B5044669
:1059600087B00846FFF753FE1546002304938DF8D1
:1059700016306B1EDBB2D1F814210190084602925A
:105980008DF814308DF815300391FFF740FE014675
:105990002046FFF7DBFF03A920468434FFF792F986
:1059A00001A92046FCF70DFC03AB024603CB516076
:1059B00019889B7810601181937201A92046FCF729
:1059C00000FC07B030BD421C03D0431E5842584172
:1059D00070470120704737B5144BD3F8F035C1F844
:1059E000543100230C46054600931A46303013F01C
:1059F0001BFB2046FFF7D6FE68B96068FFF7E3FFA0
:105A000070B10023C4F854312146284603B0BDE8E4
:105A1000304004F0BBBB6068FFF7D5FF0028F3D12E
:105A2000D4F85031002BECD0EEE700BFE8040020A2
:105A30004B89042B70B505460C4613D1D1F804618F
:105A400016B9D1F808316BB10A4B6168D3F8F0355B
:105A5000994207D00846FFF7B6FF18B932462846E4
:105A600003F0F1FA2B68214628465B6BBDE87040D5
:105A7000184700BFE8040020F7B5334BD1F8546154
:105A8000D3F8F035C1F854310C4600230546009395
:105A90001A46303013F0C8FA6168D4F854710846D9
:105AA000FFF791FF70B10021C4F850112046FFF7B5
:105AB00079FE00283DD12146284603B0BDE8F040DC
:105AC00004F064BB214BD3F8A40803681B68984713
:105AD0000028E8D0D0F8B4100029E4D08F42E2D0FA
